:1000000072C00000BBC10000EFC100009AC0000038
:1000100098C0000096C0000094C0000092C000008C
:1000200090C000008EC000008CC000008AC000009C
:1000300088C0000086C0000084C0000082C00000AC
:1000400080C000007EC000007CC000007AC00000BC
:1000500078C0000065C1000074C0000072C00000DC
:1000600070C00000BBC40000E8C400006AC000000B
:1000700068C0000066C0000064C0000062C00000EC
:1000800060C000005EC000005CC000005AC00000FC
:1000900058C0000056C0000054C0000052C000000C
:1000A00050C000004EC000004CC000004AC000001C
:1000B00048C0000046C0000044C0000042C000002C
:1000C00040C000003EC000003CC000003BC5000036
:1000D00068C5000036C0000092C50000BFC5000022
:1000E00030C00000A60311241FBECFEFD1E2DEBF57
:1000F000CDBF00E00CBF12E0A0E0B2E0E2E3F0E12F
:1001000000E00BBF02C007900D92A431B107D9F7F0
:1001100023E0A4E1B2E001C01D92AC36B207E1F7E2
:1001200010E0C3E7D0E000E005C021970109802F6F
:10013000FE0175D7C237D10780E00807B1F7BDD1FE
:1001400076C75ECFFC01168A178A108E118E178E25
:10015000168E1182108211A210A213A212A208956B
:1001600085B5856085BD8BE987BDEEE6F0E08081D1
:1001700082608083A99A16BC0895E9E6F0E0808148
:1001800082608083E89AE09A0895CF93DF93EC0130
:1001900050980898F2DFCE01E3DFDF91CF91089508
:1001A000FC01009B17C086899789A08DB18D0196AF
:1001B000A11DB11D868B978BA08FB18F828D938DE2
:1001C000A48DB58D0196A11DB11D828F938FA48F33
:1001D000B58F0895009916C086899789A08DB18D35
:1001E0000197A109B109868B978BA08FB18F828D62
:1001F000938DA48DB58D0197A109B109828F938F3D
:10020000A48FB58F0895FC01009B06C0868D978D45
:100210000196978F868F07C0009905C0868D978DB0
:100220000197978F868F868D978D8C3F934014F022
:10023000178E168E0895CF93DF93EC016E8D7F8D10
:10024000072E000C880B990BD3D521E830E840E845
:100250005AE382D620E030E044EB53E47DD695D5D6
:100260009B0179836883283681E038071CF0198266
:10027000188205C029393E4F14F4198218828881EA
:100280009981DF91CF910895CF92DF92EF92FF9203
:100290000F931F93FC0102851385248535850687FE
:1002A0001787208B318BC680D780E084F184C2868B
:1002B000D386E486F58642815381648175814683C5
:1002C00057836087718786899789A08DB18D8283D6
:1002D0009383A483B583480F591F6A1F7B1FD701DF
:1002E000C601840F951FA61FB71F800F911FA21F65
:1002F000B31FB595A79597958795B595A7959795AC
:100300008795828B938BA48BB58B168A178A108E58
:10031000118E1F910F91FF90EF90DF90CF90089575
:100320001F920F920FB60F9211240BB60F922F93BC
:100330003F934F935F936F937F938F939F93AF936D
:10034000BF93EF93FF9381E08093490280931A0259
:1003500088E792E099DFFF91EF91BF91AF919F9174
:100360008F917F916F915F914F913F912F910F905E
:100370000BBE0F900FBE0F901F9018951F920F92FB
:100380000FB60F9211240BB60F922F933F934F93FA
:100390005F936F937F938F939F93AF93BF93EF93ED
:1003A000FF9388E792E0FCDE88E792E02CDFFF9184
:1003B000EF91BF91AF919F918F917F916F915F91DD
:1003C0004F913F912F910F900BBE0F900FBE0F904A
:1003D0001F9018955198599AE9E6F0E0808188605D
:1003E0008083E99AE19A08951F920F920FB60F92B7
:1003F00011248F939F9310929702109296028091EE
:10040000160290911702019690931702809316029C
:100410009F918F910F900FBE0F901F90189588E7B6
:1004200092E009DF18161906BCF0499B07C06EE17F
:1004300070E08CE992E0AFD14999F9CF60E070E0CB
:100440008CE992E0A8D1E8E7F2E0178E168E128EC2
:10045000138E148E158E1CC088E792E0ECDE181601
:100460001906B4F4499B07C062EE7FEF8CE992E075
:1004700092D14999F9CF60E070E08CE992E08BD19C
:10048000E8E7F2E0178E168E128E138E148E158EFC
:1004900010921702109216021092770210927602B2
:1004A0008CE992E071C10895EBE0F1E080818E7FEC
:1004B000808381E08093190208958CE992E08BD1CA
:1004C00088E792E062DE86DFEAE0F1E08081816029
:1004D0008083EBE0F1E080818160808389E492E0B9
:1004E000BFD18EE190E09093150280931402E9E46D
:1004F000F2E00F2E412C512CF9E76F2EF3EC7F2EFA
:10050000F02D458A568A678A708E0F2E812C912C89
:10051000F9E7AF2EF3E4BF2EF02D818A928AA38AE9
:10052000B48A0F2EF8E6CF2EF1E9DF2EF9E8EF2E90
:10053000F0E4FF2EF02D0FE115E82BEE3DE34DEC3E
:100540005CEC60E071E4CF01ADD18AE192E088D14A
:10055000EAE1F2E0458A568A678A708E818A928A39
:10056000A38AB48A0F2EFCEECF2EF1E5DF2EF8EB36
:10057000EF2EFDE3FF2EF02D00E010E098014FE894
:1005800052EC65E070E4CF018DD1789487E690E07D
:1005900082D281E092E0C8D242DFC9E4D2E00F2EDD
:1005A000FBE0EF2EFF24F394F02D0AE112E00F2E72
:1005B000FDE2CF2ED12CF02D0F2EF8E7AF2EF2E07A
:1005C000BF2EF02D5C2E6D2E772473948C2E9D2ED5
:1005D0007BD280931802883659F128F4813651F085
:1005E000873689F030C08337B9F0873741F18137DA
:1005F00051F520C010920002F801D6A6C5A6F5015B
:10060000178E168E20C07092000280911402909175
:1006100015029EA78DA717C0709200021EA61DA6E8
:100620008CE992E0B1D010921702109216020BC022
:10063000F6DE09C0F70180818E7F808304C0F70158
:1006400080818160808310921802809116029091BF
:100650001702039761F4F501868D978D99231CF499
:100660009195819591098E30914044F11DDF8091E3
:10067000160290911702049709F5809119028823B8
:10068000E9F0209114023091150225503109309380
:100690001502209314023EA72DA7332324F41092B1
:1006A00019021EA61DA68881882321F080910002D0
:1006B000811126C0809119028111E3CF888188239E
:1006C00021F08091000281112EC0F80180818823E1
:1006D00009F47ECF8091000281117ACFC501ABDD94
:1006E000BC01990F880B990B83D3AB01BC01C801E6
:1006F000F3D04BD38CE992E04ED0F801108268CF52
:10070000F50162897389072E000C880B990B70D351
:10071000AB01BC01882D992DDFD037D38CE992E055
:100720003AD01882C7CFF50162897389072E000C71
:10073000880B990B5DD3AB01BC01852D962DCCD0D8
:1007400024D38CE992E027D01882BFCF88E792E0CB
:10075000F9CC0895249A279A259AE0E8F0E0808160
:1007600082688083E1E8F0E080818A61808389EF9C
:1007700090E0909387008093860008952C9A2F989C
:1007800008952C982F9A08952C982F9810928900EC
:100790001092880008950F931F93CF93DF938C01DD
:1007A000EB011C161D060CF4E9DFC93FD10544F42A
:1007B000DD2344F4D195C195D109C801E2DF02C01F
:1007C000C9EFD0E0D0938900C0938800DF91CF912A
:1007D0001F910F910895CF93DF93EC01BBDFCE0102
:1007E000D3DF60E070E0CE01D6DFDF91CF910895D6
:1007F0008F929F92AF92BF92CF92DF92EF92FF9231
:100800000F931F93CF93DF93EC014A015B016801C3
:1008100079019A01AB01688179818A819B81B1D28A
:10082000882324F488829982AA82BB82A701960138
:10083000688179818A819B818BD3181624F4C882C0
:10084000D982EA82FB82DF91CF911F910F91FF90B5
:10085000EF90DF90CF90BF90AF909F908F900895D2
:10086000FC01118212821382148215821682178271
:1008700010861186128613861486118E128E138EA0
:10088000148E158616861786108A15A216A217A230
:1008900010A611A612A613A614A616A615A681E0E8
:1008A00080830895CF92DF92EF92FF920F931F9370
:1008B000FC014183528363837483058316832783FA
:1008C0003087C186D286E386F4861F910F91FF9010
:1008D000EF90DF90CF9008958F929F92AF92BF924A
:1008E000CF92DF92EF92FF920F931F93CF93DF93FC
:1008F000EC016A017B016DA57EA5072E000C880B1B
:10090000990B76D2A7019601D7D1698F7A8F8B8FF9
:100910009C8F2D813E814F8158851ED39B01AC0158
:1009200069A17AA18BA19CA1C8D169A37AA38BA349
:100930009CA300E010E028EC31E440E050E068ECDB
:1009400071ECCE010D9654DF298D3A8D4B8D5C8D67
:1009500069817A818B819C81FFD229A13AA14BA127
:100960005CA1ABD14B015C012DA13EA14FA158A5CB
:10097000C701B601A1D129853A854B855C85ECD2AA
:100980009B01AC01C501B40197D129A53AA54BA59E
:100990005CA593D16D8F7E8F8F8F98A309891A895B
:1009A0002B893C894D895E896F89788DCE014D9662
:1009B0001FDFCDA2DEA2EFA2F8A66D8D7E8D8F8DFA
:1009C00098A1DF91CF911F910F91FF90EF90DF9051
:1009D000CF90BF90AF909F908F9008951F920F92ED
:1009E0000FB60F9211240BB60F922F938F939F93F4
:1009F000EF93FF938091C0002091C6008871E09131
:100A00002903EF5FEF7190912803E91739F0E09324
:100A10002903F0E0E45DFC4F208301C082E0809375
:100A20002703FF91EF919F918F912F910F900BBE14
:100A30000F900FBE0F901F9018951F920F920FB638
:100A40000F9211240BB60F928F939F93EF93FF9306
:100A500090912B0380912A03981769F0E0912A0363
:100A6000EF5FEF71E0932A03F0E0E45BFC4F8081DD
:100A70008093C60005C0E1ECF0E080818F7D80832B
:100A8000FF91EF919F918F910F900BBE0F900FBE32
:100A90000F901F90189510922B0310922A0310921A
:100AA000290310922803992324F422E02093C00004
:100AB0009F779093C5008093C40088E98093C1001C
:100AC00086E08093C20008959091290380912803C5
:100AD000981791F0E0912803EF5FEF71E0932803FE
:100AE000F0E0E45DFC4F20818091270390E0982F97
:100AF0008827820F911D089580E091E0089520914C
:100B00002B032F5F2F7190912A032917E1F3E22F16
:100B1000F0E0E45BFC4F808320932B03E1ECF0E0FA
:100B20008081806280830895CF93DF93EC01888178
:100B3000882329F02196E3DF89918111FCCFDF9191
:100B4000CF9108951F920F920FB60F9211240BB6FA
:100B50000F922F938F939F93EF93FF938091D000E9
:100B60002091D6008871E091E402EF5FEF719091DF
:100B7000E302E91739F0E093E402F0E0E951FD4FB8
:100B8000208301C082E08093E202FF91EF919F9168
:100B90008F912F910F900BBE0F900FBE0F901F9053
:100BA00018951F920F920FB60F9211240BB60F9249
:100BB0008F939F93EF93FF939091E6028091E502CC
:100BC000981769F0E091E502EF5FEF71E093E502BD
:100BD000F0E0E95FFC4F80818093D60005C0E1ED35
:100BE000F0E080818F7D8083FF91EF919F918F91C5
:100BF0000F900BBE0F900FBE0F901F9018951F9275
:100C00000F920FB60F9211240BB60F922F938F9362
:100C10009F93EF93FF93809130012091360188716B
:100C2000E0919F02EF5FEF7190919E02E91739F01A
:100C3000E0939F02F0E0EE55FD4F208301C082E07B
:100C400080939D02FF91EF919F918F912F910F9033
:100C50000BBE0F900FBE0F901F9018951F920F9212
:100C60000FB60F9211240BB60F928F939F93EF93B1
:100C7000FF939091A1028091A002981769F0E091F2
:100C8000A002EF5FEF71E093A002F0E0EE53FD4FA2
:100C900080818093360105C0E1E3F1E080818F7DA2
:100CA0008083FF91EF919F918F910F900BBE0F90DA
:100CB0000FBE0F901F9018955058BB27AA270ED033
:100CC0000DC1FED030F003D120F031F49F3F11F47C
:100CD0001EF4F3C00EF4E095E7FBE9C0E92F0FD155
:100CE00080F3BA17620773078407950718F071F449
:100CF0009EF527C10EF4E0950B2EBA2FA02D0B0107
:100D0000B90190010C01CA01A0011124FF27591B50
:100D100099F0593F50F4503E68F11A16F040A22F56
:100D2000232F342F4427585FF3CF469537952795C7
:100D3000A795F0405395C9F77EF41F16BA0B620BC6
:100D4000730B840BBAF09150A1F0FF0FBB1F661F0D
:100D5000771F881FC2F70EC0BA0F621F731F841F50
:100D600048F4879577956795B795F7959E3F08F076
:100D7000B3CF9395880F08F09927EE0F9795879535
:100D8000089571D008F481E0089504D06894B111F9
:100D9000D9C00895BCD088F09F5790F0B92F9927FB
:100DA000B751A0F0D1F0660F771F881F991F1AF076
:100DB000BA95C9F712C0B13081F0C3D0B1E008953F
:100DC000C0C0672F782F8827B85F39F0B93FCCF3C0
:100DD000869577956795B395D9F73EF4909580956C
:100DE000709561957F4F8F4F9F4F0895E89409C08C
:100DF00097FB3EF490958095709561957F4F8F4F4E
:100E00009F4F9923A9F0F92F96E9BB279395F69563
:100E1000879577956795B795F111F8CFFAF4BB0FE1
:100E200011F460FF1BC06F5F7F4F8F4F9F4F16C045
:100E3000882311F096E911C0772321F09EE8872FCF
:100E4000762F05C0662371F096E8862F70E060E08B
:100E50002AF09A95660F771F881FDAF7880F969504
:100E6000879597F90895990F0008550FAA0BE0E8A8
:100E7000FEEF16161706E807F907C0F0121613065C
:100E8000E407F50798F0621B730B840B950B39F49C
:100E90000A2661F0232B242B252B21F408950A2602
:100EA00009F4A140A6958FEF811D811D089597F942
:100EB0009F6780E870E060E008959FEF80EC089500
:100EC00000240A9416161706180609060895002429
:100ED0000A9412161306140605060895092E0394A3
:100EE000000C11F4882352F0BB0F40F4BF2B11F417
:100EF00060FF04C06F5F7F4F8F4F9F4F089557FD76
:100F00009058440F551F59F05F3F71F04795880F77
:100F100097FB991F61F09F3F79F08795089512160E
:100F200013061406551FF2CF4695F1DF08C01616BA
:100F300017061806991FF1CF86957105610508946B
:100F40000895E894BB2766277727CB0197F9089582
:100F50008ADF08F48FEF08950BD0C0CFB1DF28F0FF
:100F6000B6DF18F0952309F0A2CFA7CF1124EACF5E
:100F7000C6DFA0F3959FD1F3950F50E0551F629FF8
:100F8000F001729FBB27F00DB11D639FAA27F00DE2
:100F9000B11DAA1F649F6627B00DA11D661F829F09
:100FA0002227B00DA11D621F739FB00DA11D621FEE
:100FB000839FA00D611D221F749F3327A00D611D0B
:100FC000231F849F600D211D822F762F6A2F1124ED
:100FD0009F5750408AF0E1F088234AF0EE0FFF1F40
:100FE000BB1F661F771F881F91505040A9F79E3F77
:100FF000510570F05CCFA6CF5F3FECF3983EDCF379
:10100000869577956795B795F795E7959F5FC1F7B3
:10101000FE2B880F911D9695879597F90895EE0FF1
:10102000FF1F881F8BBF0790F691E02D1994F8944D
:02103000FFCFF0
:10103200014769766520436F6D6D616E64212121E0
:041042000A0D000093
:00000001FF
